:020000040800F2
:10000000002800202D1100086D0F0008730F000854
:10001000790F00087F0F0008850F0008000000001E
:100020000000000000000000000000008B0F00082E
:10003000970F000800000000A30F0008AF0F000892
:100040007511000875110008751100087511000878
:100050007511000875110008751100087511000868
:100060007511000875110008751100087511000858
:100070007511000875110008751100087511000848
:100080007511000875110008751100087511000838
:100090007511000875110008751100087511000828
:1000A0007511000875110008751100087511000818
:1000B000BD0F000875110008000000007511000850
:1000C0007511000800000000000000007511000814
:1000D0000000000075110008751100080000000004
:1000E0007511000875110008751100080000000066
:1000F0000000000000000000000000000000000000
:0C01000000000000000000005FF808F1A3
:10010C0010B5054C237833B9044B13B10448AFF345
:10011C0000800123237010BD34000020000000007B
:10012C00D027000808B5034B1BB103490348AFF3B4
:10013C00008008BD0000000038000020D027000817
:10014C0080B500AF344B1B68062B5FD1334B1B685B
:10015C00012B08D14FF4FA7000F03AFF4FF4106104
:10016C002F4801F01EFB2F4B1B68184600F0FAFCC1
:10017C002D4B1B68184600F019FD012000F0DAFA2F
:10018C000346002B0BD0274B1B680133254A136009
:10019C00244B1B68632B02DD224B01221A600220C8
:1001AC0000F0C8FA0346002B0DD01E4B1A681F4BEB
:1001BC001B68D21A1E4B1B6813441D4A1360194B43
:1001CC001B681A4A1360002000F0B4FA0346002B97
:1001DC001ED000F067FB174B1B684FF47A7202FBC2
:1001EC0003F3184600F0F4FE0F4B01221A60124B79
:1001FC001B68124A13600F4B1B68114A13600A20CC
:10020C0000F002FF044B01221A6001E000BF00E085
:10021C0000BF00BF80BD00BF50000020F8000020D0
:10022C0000080140600000205C000020000000205D
:10023C00100000200C0000200400002054000020BE
:10024C005800002080B500AF884B1B68042B00F2CF
:10025C00738101A252F823F079020008BD02000854
:10026C004F030008E9030008AD0400087F4B01228E
:10027C001A607F4B1B684FF47A7202FB03F318462B
:10028C0000F0A6FE7B4B1B687B4A1360784B1B6807
:10029C007A4A1360784B1B68184600F063FC774B66
:1002AC001B68184600F082FC0A2000F0ADFE4CE101
:1002BC0000F0A0FC724B1B68012B13D14FF47A7029
:1002CC0000F0A2FE6C4B1B685A1E6B490A60184664
:1002DC0000F048FC694B1B685A1E68490A601846B6
:1002EC0000F064FC674B1B68012B12D1664B1B683A
:1002FC004FF47A7202FB03F3184600F069FE624B6E
:10030C001B685E4A1360594B02221A600A2000F0E7
:10031C007BFE002000F00EFA0346002B00F00E814D
:10032C0000F0C0FA4FF4FA7000F052FE514B1B680B
:10033C00564A1360564B02221A604C4B05221A6027
:10034C00FCE000F069FC4E4B1B68012B13D14FF401
:10035C007A7000F059FE484B1B685A1E46490A60D9
:10036C00184600F0FFFB454B1B685A1E43490A60B8
:10037C00184600F01BFC434B1B68012B16D1454B58
:10038C001B684FF47A7202FB03F3184600F020FE50
:10039C00404B1B68384A13603F4B1B68374A13604D
:1003AC00324B03221A600A2000F02EFE002000F0CF
:1003BC00C1F90346002B00F0C38000F073FA4FF430
:1003CC00FA7000F005FE2B4B1B68304A1360304B63
:1003DC0002221A60254B05221A60B1E000F02EFCB7
:1003EC00274B1B68012B13D14FF47A7000F00CFED5
:1003FC00214B1B685A1E20490A60184600F0B2FBBC
:10040C001E4B1B685A1E1D490A60184600F0CEFB95
:10041C001C4B1B68012B12D1204B1B684FF47A72BA
:10042C0002FB03F3184600F0D3FD1C4B1B68124A69
:10043C0013600E4B04221A600A2000F0E5FD002028
:10044C0000F078F90346002B7CD000F02BFA4FF427
:10045C00FA7000F0BDFD074B1B680C4A13600C4B87
:10046C0002221A60014B05221A606BE0500000203A
:10047C000C00002004000020540000205800002034
:10048C0000010020F8000020140000206000002073
:10049C005C0000200000002010000020080000205C
:1004AC0000F0DEFB2A4B1B68012B13D14FF47A7042
:1004BC0000F0AAFD274B1B685A1E26490A601846F5
:1004CC0000F050FB244B1B685A1E23490A60184647
:1004DC0000F06CFB214B1B68012B16D1204B1B68C9
:1004EC004FF47A7202FB03F3184600F071FD1D4BBA
:1004FC001B68184A13601A4B1B68174A13601A4B77
:10050C0001221A600A2000F07FFD002000F012F991
:10051C000346002B18D000F0C5F94FF4FA7000F028
:10052C0057FD104B1B68114A1360114B02221A60C5
:10053C000D4B05221A6007E000BF06E000BF04E087
:10054C0000BF02E000BF00E000BF00BF80BD00BFE5
:10055C00000100205400002058000020F80000206A
:10056C000C0000200400002050000020600000203F
:10057C005C00002080B500AF2E4B1B68052B53D1BF
:10058C002D4B1B68012B08D14FF4FA7000F020FDA5
:10059C004FF41071294801F004F9294B1B681846D7
:1005AC0000F0E0FA274B1B68184600F0FFFA012018
:1005BC0000F0C0F80346002B0BD0214B1B68013315
:1005CC001F4A13601E4B1B68632B02DD1C4B012260
:1005DC001A60022000F0AEF80346002B0DD0184B29
:1005EC001A68194B1B68D21A184B1B681344174A0C
:1005FC001360134B1B68144A1360002000F09AF828
:10060C000346002B12D000F04DF94FF4FA7000F0B5
:10061C00DFFC0F4B1B680A4A13600A4B03221A605B
:10062C00044B07221A6001E000BF00E000BF00BFCE
:10063C0080BD00BF50000020F800002000080140E1
:10064C00600000205C000020040000200C00002052
:10065C000800002080B500AF2E4B1B68072B53D130
:10066C002D4B1B68012B08D14FF4FA7000F0B0FC35
:10067C004FF41061294801F094F8294B1B68184677
:10068C0000F070FA274B1B68184600F08FFA012017
:10069C0000F050F80346002B0BD0214B1B680133A4
:1006AC001F4A13601E4B1B68632B02DD1C4B01227F
:1006BC001A60022000F03EF80346002B0DD0184BB8
:1006CC001A68194B1B68D21A184B1B681344174A2B
:1006DC001360134B1B68144A1360002000F02AF8B7
:1006EC000346002B12D000F0DDF84FF4FA7000F046
:1006FC006FFC0F4B1B680A4A13600A4B04221A60EA
:10070C00044B06221A6001E000BF00E000BF00BFEE
:10071C0080BD00BF50000020F80000200008014000
:10072C00600000205C000020080000201000002069
:10073C000000002080B483B000AF7860094A7B6869
:10074C0052F82330012B06D1064A7B68002142F86F
:10075C002310012300E0002318460C37BD4680BC53
:10076C00704700BFA000002080B582B000AF00230E
:10077C007B6080E0444A7B6852F8232043497B68C5
:10078C0041F823207B68002B09D10421404800F05C
:10079C00D9FF034619463C4A7B6842F823107B6814
:1007AC00012B09D108213A4800F0CCFF0346194629
:1007BC00354A7B6842F823107B68022B09D1102143
:1007CC00334800F0BFFF034619462F4A7B6842F8B6
:1007DC0023102D4A7B6852F823202C497B6851F852
:1007EC0023309A4244D12B4A7B6852F82320264965
:1007FC007B6851F823309A421ED0234A7B6852F80A
:10080C00232024497B6841F82320224A7B6852F834
:10081C002330002B05D1204A7B68012142F823109C
:10082C0026E01E4A7B68002142F823101C4A7B6894
:10083C00002142F823101BE0164A7B6852F8233043
:10084C00002B15D1164A7B6852F82330B3F5967FEE
:10085C0009DA134A7B6852F823305A1C10497B681A
:10086C0041F8232004E00D4A7B68012142F8231053
:10087C007B6801337B607B68022B7FF77BAF00BF0B
:10088C0000BF0837BD4680BD70000020640000200A
:10089C00000801407C000020A000002094000020F3
:1008AC008800002080B500AF01224FF6C0710448CB
:1008BC0000F05FFF034B4FF6FF72DA6000BF80BDA4
:1008CC0000080140000C014080B483B000AF786098
:1008DC007B68092B6ED801A252F823F0110900088D
:1008EC0023090008350900084709000859090008C0
:1008FC006B0900087D0900088F090008A109000890
:10090C00AF0900082E4BDB6803F47F432C4A43F0FD
:10091C004003D3604FE02A4BDB6803F47F43284A43
:10092C0043F07903D36046E0254BDB6803F47F4347
:10093C00234A43F02403D3603DE0214BDB6803F4EE
:10094C007F431F4A43F03003D36034E01C4BDB6819
:10095C0003F47F431A4A43F01903D3602BE0184B7E
:10096C00DB6803F47F43164A43F01203D36022E0A2
:10097C00134BDB6803F47F43114A43F00203D3604B
:10098C0019E00F4BDB6803F47F430D4A43F0780307
:10099C00D36010E00A4BDB68094A03F47F43D36051
:1009AC0009E0074BDB6803F47F43054A43F010036F
:1009BC00D36000E000BF00BF0C37BD4680BC704761
:1009CC00000C014080B483B000AF78607B68092BC9
:1009DC0064D801A252F823F00D0A00081D0A000881
:1009EC002D0A00083D0A00084D0A00085D0A00089F
:1009FC006D0A00087D0A00088D0A0008990A000893
:100A0C00294BDB68DBB2284A43F48043D36046E0D1
:100A1C00254BDB68DBB2244A43F4F243D3603EE05F
:100A2C00214BDB68DBB2204A43F41053D36036E031
:100A3C001D4BDB68DBB21C4A43F44053D3602EE001
:100A4C00194BDB68DBB2184A43F4C853D36026E079
:100A5C00154BDB68DBB2144A43F49053D3601EE0B1
:100A6C00114BDB68DBB2104A43F40073D36016E021
:100A7C000D4BDB68DBB20C4A43F4F043D3600EE061
:100A8C00094BDB68084ADBB2D36008E0064BDB6835
:100A9C00DBB2054A43F48053D36000E000BF00BFD3
:100AAC000C37BD4680BC7047000C014080B582B04D
:100ABC0000AF78607B68002B03D07B68012B23D0C0
:100ACC0045E001224FF40051234800F052FE012270
:100ADC004FF40041204800F04CFE204B1B68184698
:100AEC00FFF7F2FE1E4B1B681846FFF76BFF002248
:100AFC004FF48051184800F03CFE00224FF4804126
:100B0C00154800F036FE22E001224FF480511248C5
:100B1C0000F02FFE01224FF480410F4800F029FE17
:100B2C000E4B5B681846FFF7CFFE0D4B5B68184603
:100B3C00FFF748FF00224FF40051074800F019FE60
:100B4C0000224FF40041044800F013FE00BF00BF28
:100B5C000837BD4680BD00BF0008014018000020CA
:100B6C002000002080B483B000AF78607B680D4A11
:100B7C0082FB03129210DB17D31A0B4A13607968AD
:100B8C00084B83FB01239A10CB17D21A13469B00F8
:100B9C0013445B00CA1A044B5A6000BF0C37BD46A5
:100BAC0080BC7047676666661800002080B483B00E
:100BBC0000AF78607B680D4A82FB03129210DB1742
:100BCC00D31A0B4A13607968084B83FB01239A10E4
:100BDC00CB17D21A13469B0013445B00CA1A044B62
:100BEC005A6000BF0C37BD4680BC704767666666AE
:100BFC002000002080B500AF00224FF4886105482A
:100C0C0000F0B7FD01224FF43861024800F0B1FD4D
:100C1C0000BF80BD0008014080B500AF00224FF43A
:100C2C000461054800F0A5FD01224FF4F061024873
:100C3C0000F09FFD00BF80BD0008014080B500AFF3
:100C4C0000224FF42071054800F093FD01224FF46F
:100C5C005461024800F08DFD00BF80BD00080140CA
:100C6C0080B500AF00224FF44071054800F081FDC3
:100C7C0001224FF44C61024800F07BFD00BF80BDA7
:100C8C000008014080B582B000AF00F06FFA00F0B0
:100C9C0031F800F0B7F800F069F8134801F0D2F918
:100CAC00124B00221A600A2000F0CAF900237B6064
:100CBC00FFF7C8FAFFF75EFCFFF742FAFFF7CAFC32
:100CCC000B4B1B68012BF3D14FF4FA7000F0B8F901
:100CDC007B685A1C7A601846FFF7E8FE7B68012B8C
:100CEC00E6DD00237B60E3E7AC0000205000002031
:100CFC000801002080B590B000AF07F1180328223E
:100D0C000021184601F056FD3B1D00221A605A6066
:100D1C009A60DA601A610223BB610123BB62102363
:100D2C00FB6200237B6307F11803184600F052FDA9
:100D3C000346002B01D000F0C7F80F237B60002383
:100D4C00BB600023FB6000233B6100237B613B1DE8
:100D5C000021184600F0C0FF0346002B01D000F024
:100D6C00B3F800BF4037BD4680BD000080B586B0EB
:100D7C0000AF07F1080300221A605A609A60DA602B
:100D8C003B4600221A605A601D4B4FF080421A609D
:100D9C001B4B41F63F725A60194B00229A60184B5C
:100DAC000922DA60164B00221A61154B00229A6157
:100DBC00134801F0F7F80346002B01D000F084F83B
:100DCC004FF48053BB6007F1080319460C4801F03F
:100DDC008DFA0346002B01D000F076F800233B601F
:100DEC0000237B603B461946054801F055FC034641
:100DFC00002B01D000F068F800BF1837BD4680BD4D
:100E0C00AC00002080B586B000AF07F108030022CB
:100E1C001A605A609A60DA60284B9B69274A43F043
:100E2C0004039361254B9B6903F004037B607B688F
:100E3C00224B9B69214A43F0080393611F4B9B692A
:100E4C0003F008033B603B6800224FF6C0711C485E
:100E5C0000F08FFC002247F67F711A4800F089FCE5
:100E6C001C23BB600023FB6001233B6107F10803DB
:100E7C001946134800F0EAFA4FF6C073BB60012321
:100E8C00FB6000233B6102237B6107F108031946D9
:100E9C000B4800F0DBFA47F67F73BB600123FB6065
:100EAC0000233B6102237B6107F1080319460548C7
:100EBC0000F0CCFA00BF1837BD4680BD00100240D0
:100ECC0000080140000C014080B400AF72B600BFB6
:100EDC00FEE7000080B483B000AF0E4B9B690D4A57
:100EEC0043F0010393610B4B9B6903F001037B609F
:100EFC007B68084BDB69074A43F08053D361054B91
:100F0C00DB6903F080533B603B6800BF0C37BD4688
:100F1C0080BC70470010024080B584B000AF786090
:100F2C007B681B68B3F1804F13D10C4BDB690B4A08
:100F3C0043F00103D361094BDB6903F00103FB6050
:100F4C00FB68002200211C2000F049FA1C2000F054
:100F5C0062FA00BF1037BD4680BD00BF00100240D2
:100F6C0080B400AFFEE780B400AFFEE780B400AF02
:100F7C00FEE780B400AFFEE780B400AFFEE780B4BC
:100F8C0000AF00BFBD4680BC704780B400AF00BF4F
:100F9C00BD4680BC704780B400AF00BFBD4680BC6E
:100FAC00704780B500AF00F027F900BF80BD00008E
:100FBC0080B500AF024801F091F800BF80BD00BFC2
:100FCC00AC00002080B400AF00BFBD4680BC7047B1
:100FDC0080B483B000AF7860084B00221A607B6845
:100FEC00074A82FB03129210DB17D31A054A1360CF
:100FFC0000BF0C37BD4680BC704700BFF800002016
:10100C0067666666F400002080B483B000AF786039
:10101C00084B00221A607B68074A82FB031292106D
:10102C00DB17D31A054A136000BF0C37BD4680BCD2
:10103C00704700BF0001002067666666FC00002058
:10104C0080B483B000AF7860084B00221A607B68D4
:10105C00074A82FB03129210DB17D31A054A13605E
:10106C0000BF0C37BD4680BC704700BF0801002094
:10107C00676666660401002080B400AF194B1B68DC
:10108C00002B0BDD174B1B68013B164A1360154BED
:10109C001B68002B02D1144B01221A60134B1B68E6
:1010AC00002B0BDD114B1B68013B104A13600F4BDF
:1010BC001B68002B02D10E4B01221A600D4B1B68D2
:1010CC00002B0BDD0B4B1B68013B0A4A1360094BD1
:1010DC001B68002B02D1084B01221A6000BFBD46D1
:1010EC0080BC7047F4000020F8000020FC000020B9
:1010FC0000010020040100200801002080B582B00E
:10110C0000AF78607B681B68B3F1804F03D1FFF7A9
:10111C00B3FFFFF729FB00BF0837BD4680BD0000B9
:10112C000C480D490D4A002302E0D458C450043336
:10113C00C4188C42F9D30A4A0A4C002301E013600C
:10114C000432A242FBD3FFF73DFF01F00FFBFFF788
:10115C0099FD704700000020340000201028000882
:10116C003400002010010020FEE7000080B500AF25
:10117C00084B1B68074A43F010031360032000F070
:10118C0023F90F2000F008F8FFF7A4FE00231846FF
:10119C0080BD00BF0020024080B582B000AF7860F7
:1011AC00124B1A68124B1B7819464FF47A73B3FB27
:1011BC00F1F3B2FBF3F3184600F03BF90346002BB6
:1011CC0001D001230EE07B680F2B0AD8002279682E
:1011DC004FF0FF3000F003F9064A7B6813600023E0
:1011EC0000E0012318460837BD4680BD28000020CA
:1011FC00300000202C00002080B400AF054B1B7881
:10120C001A46054B1B681344034A136000BFBD46C6
:10121C0080BC7047300000200C01002080B400AF6F
:10122C00024B1B681846BD4680BC70470C01002061
:10123C0080B485B000AF78607B6803F00703FB6077
:10124C000C4BDB68BB60BA684FF6FF031340BB6006
:10125C00FB681A02BB68134343F0BF6343F40033CB
:10126C00BB60044ABB68D36000BF1437BD4680BC6A
:10127C00704700BF00ED00E080B400AF044BDB68AA
:10128C001B0A03F007031846BD4680BC704700BF1D
:10129C0000ED00E080B483B000AF0346FB7197F91A
:1012AC000730002B0BDBFB7903F01F02064997F983
:1012BC0007305B09012000FA02F241F8232000BF3D
:1012CC000C37BD4680BC704700E100E080B483B0B1
:1012DC0000AF03463960FB7197F90730002B0ADB2E
:1012EC003B68DAB20C4997F907301201D2B20B44C1
:1012FC0083F800230AE03B68DAB20849FB7903F073
:10130C000F03043B1201D2B20B441A7600BF0C3708
:10131C00BD4680BC704700BF00E100E000ED00E07E
:10132C0080B489B000AFF860B9607A60FB6803F0F4
:10133C000703FB61FB69C3F10703042B28BF0423DC
:10134C00BB61FB690433062B02D9FB69033B00E04C
:10135C0000237B614FF0FF32BB6902FA03F3DA43DF
:10136C00BB681A407B699A404FF0FF317B6901FAE8
:10137C0003F3D9437B680B40134318462437BD460F
:10138C0080BC704780B582B000AF78607B68013B51
:10139C00B3F1807F01D301230FE00A4A7B68013B44
:1013AC0053600F214FF0FF30FFF790FF054B0022E9
:1013BC009A60044B07221A60002318460837BD4672
:1013CC0080BD00BF10E000E080B582B000AF786057
:1013DC007868FFF72DFF00BF0837BD4680BD80B58C
:1013EC0086B000AF0346B9607A60FB7300237B6163
:1013FC00FFF742FF78617A68B9687869FFF790FF68
:10140C00024697F90F3011461846FFF75FFF00BFF1
:10141C001837BD4680BD80B582B000AF0346FB7166
:10142C0097F907301846FFF735FF00BF0837BD4660
:10143C0080BD80B582B000AF78607868FFF7A2FFFE
:10144C00034618460837BD4680BD000080B48BB0FB
:10145C0000AF7860396000237B6200233B6261E15E
:10146C0001227B6A02FA03F3FB613B681B68FA6991
:10147C001340BB61BA69FB699A4240F050813B68EA
:10148C005B68974A93425ED0954A934275D8954AC9
:10149C00934258D0934A93426FD8934A934252D076
:1014AC00914A934269D8914A93424CD08F4A9342C5
:1014BC0063D88F4A934246D08D4A93425DD8122B03
:1014CC002AD8122B59D801A252F823F05315000830
:1014DC002D1500083F150008811500088715000818
:1014EC008715000887150008871500088715000860
:1014FC008715000887150008871500088715000850
:10150C00871500088715000887150008871500083F
:10151C003515000849150008764A934213D02CE083
:10152C003B68DB683B6229E03B68DB6804333B6269
:10153C0024E03B68DB6808333B621FE03B68DB68F8
:10154C000C333B621AE03B689B68002B02D10423EE
:10155C003B6213E03B689B68012B05D108233B627F
:10156C007B68FA691A6109E008233B627B68FA69B7
:10157C005A6103E000233B6200E000BFBB69FF2B14
:10158C0001D87B6801E07B6804337B61BB69FF2B6E
:10159C0002D87B6A9B0002E07B6A083B9B003B61A4
:1015AC007B691A680F213B6901FA03F3DB431A408C
:1015BC00396A3B6901FA03F31A437B691A603B6889
:1015CC005B6803F08053002B00F0A9804A4B9B69A9
:1015DC00494A43F001039361474B9B6903F00103B4
:1015EC00BB60BB68454A7B6A9B08023352F82330C8
:1015FC00FB607B6A03F003039B000F2202FA03F3E8
:10160C00DB43FA681340FB607B683D4A93420DD084
:10161C007B683C4A934207D07B683B4A934201D19A
:10162C00022304E0032302E0012300E000237A6A92
:10163C0002F0030292009340FA681343FB602F49B7
:10164C007B6A9B080233FA6841F823203B685B688D
:10165C0003F48033002B06D02C4B1A682B49BB6942
:10166C0013430B6006E0294B1A68BB69DB4327491F
:10167C0013400B603B685B6803F40033002B06D00F
:10168C00224B5A682149BB6913434B6006E01F4B40
:10169C005A68BB69DB431D4913404B603B685B6870
:1016AC0003F48013002B06D0184B9A681749BB69BA
:1016BC0013438B6006E0154B9A68BB69DB431349F7
:1016CC0013408B603B685B6803F40013002B1FD046
:1016DC000E4BDA680D49BB691343CB601FE000BFAA
:1016EC000000321000003110000022100000211008
:1016FC000000121000001110001002400000014008
:10170C0000080140000C01400010014000040140A1
:10171C000B4BDA68BB69DB4309491340CB607B6A2E
:10172C0001337B623B681A687B6A22FA03F3002B55
:10173C007FF496AE00BF00BF2C37BD4680BC70470F
:10174C000004014080B485B000AF78600B467B800C
:10175C007B689A687B881340002B02D00123FB73B3
:10176C0001E00023FB73FB7B18461437BD4680BC9D
:10177C00704780B483B000AF78600B467B80134613
:10178C007B707B78002B03D07A887B681A6103E02E
:10179C007B881A047B681A6100BF0C37BD4680BC7D
:1017AC00704780B485B000AF78600B467B807B6857
:1017BC00DB68FB607A88FB6813401A04FB68D9432A
:1017CC007B880B401A437B681A6100BF1437BD46F7
:1017DC0080BC704780B586B000AF78607B68002B0A
:1017EC0001D1012372E27B681B6803F00103002B1B
:1017FC0000F08780924B5B6803F00C03042B0CD039
:10180C008F4B5B6803F00C03082B12D18C4B5B687D
:10181C0003F48033B3F5803F0BD1894B1B6803F481
:10182C000033002B6CD07B685B68002B68D10123E4
:10183C004CE27B685B68B3F5803F06D1804B1B683C
:10184C007F4A43F4803313602EE07B685B68002B87
:10185C000CD17B4B1B687A4A23F480331360784B92
:10186C001B68774A23F4802313601DE07B685B6858
:10187C00B3F5A02F0CD1724B1B68714A43F4802333
:10188C0013606F4B1B686E4A43F4803313600BE09C
:10189C006B4B1B686A4A23F480331360684B1B68DC
:1018AC00674A23F4802313607B685B68002B13D09A
:1018BC00FFF7B4FC386108E0FFF7B0FC02463B6967
:1018CC00D31A642B01D9032300E25D4B1B6803F48C
:1018DC000033002BF0D014E0FFF7A0FC386108E0D7
:1018EC00FFF79CFC02463B69D31A642B01D90323F6
:1018FC00ECE1534B1B6803F40033002BF0D100E0F8
:10190C0000BF7B681B6803F00203002B63D04C4BB9
:10191C005B6803F00C03002B0BD0494B5B6803F0A6
:10192C000C03082B1CD1464B5B6803F48033002B53
:10193C0016D1434B1B6803F00203002B05D07B68C8
:10194C001B69012B01D00123C0E13D4B1B6823F027
:10195C00F8027B685B69DB00394913430B603AE0A2
:10196C007B681B69002B20D0364B01221A60FFF7D5
:10197C0055FC386108E0FFF751FC02463B69D31A6D
:10198C00022B01D90323A1E12D4B1B6803F00203A9
:10199C00002BF0D02A4B1B6823F0F8027B685B69A4
:1019AC00DB00274913430B6015E0264B00221A601D
:1019BC00FFF734FC386108E0FFF730FC02463B6966
:1019CC00D31A022B01D9032380E11D4B1B6803F0B2
:1019DC000203002BF0D17B681B6803F00803002B7B
:1019EC003AD07B689B69002B19D0174B01221A60E7
:1019FC00FFF714FC386108E0FFF710FC02463B6966
:101A0C00D31A022B01D9032360E10D4B5B6A03F05F
:101A1C000203002BF0D0012000F0A6FA1CE00A4BC8
:101A2C0000221A60FFF7FAFB38610FE0FFF7F6FBB4
:101A3C0002463B69D31A022B08D9032346E100BFA7
:101A4C00001002400000424280044242924B5B6A0A
:101A5C0003F00203002BE9D17B681B6803F004033D
:101A6C00002B00F0A6800023FB758B4BDB6903F089
:101A7C008053002B0DD1884BDB69874A43F0805390
:101A8C00D361854BDB6903F08053BB60BB680123DA
:101A9C00FB75824B1B6803F48073002B18D17F4BB2
:101AAC001B687E4A43F480731360FFF7B7FB386101
:101ABC0008E0FFF7B3FB02463B69D31A642B01D94C
:101ACC00032303E1754B1B6803F48073002BF0D0E8
:101ADC007B68DB68012B06D16F4B1B6A6E4A43F0A7
:101AEC00010313622DE07B68DB68002B0CD16A4B81
:101AFC001B6A694A23F001031362674B1B6A664A2F
:101B0C0023F0040313621CE07B68DB68052B0CD10B
:101B1C00614B1B6A604A43F0040313625E4B1B6A01
:101B2C005D4A43F0010313620BE05B4B1B6A5A4A9C
:101B3C0023F001031362584B1B6A574A23F004032A
:101B4C0013627B68DB68002B15D0FFF767FB3861ED
:101B5C000AE0FFF763FB02463B69D31A41F2883275
:101B6C00934201D90323B1E04B4B1B6A03F00203F0
:101B7C00002BEED014E0FFF751FB38610AE0FFF7C1
:101B8C004DFB02463B69D31A41F28832934201D98C
:101B9C0003239BE0404B1B6A03F00203002BEED1A6
:101BAC00FB7D012B05D13C4BDB693B4A23F0805379
:101BBC00D3617B68DB69002B00F08780364B5B6858
:101BCC0003F00C03082B61D07B68DB69022B46D138
:101BDC00334B00221A60FFF721FB386108E0FFF756
:101BEC001DFB02463B69D31A022B01D903236DE07E
:101BFC00294B1B6803F00073002BF0D17B681B6A28
:101C0C00B3F5803F08D1244B5B6823F400327B682A
:101C1C009B68214913434B601F4B5B6823F4741280
:101C2C007B68196A7B685B6A0B431B4913434B60E7
:101C3C001B4B01221A60FFF7F1FA386108E0FFF73D
:101C4C00EDFA02463B69D31A022B01D903233DE07E
:101C5C00114B1B6803F00073002BF0D035E0104BD8
:101C6C0000221A60FFF7DAFA386108E0FFF7D6FABB
:101C7C0002463B69D31A022B01D9032326E0064BFB
:101C8C001B6803F00073002BF0D11EE07B68DB694E
:101C9C00012B07D1012319E0001002400070004015
:101CAC00600042420B4B5B68FB60FB6803F48032C4
:101CBC007B681B6A9A4206D1FB6803F470127B683E
:101CCC005B6A9A4201D0012300E0002318461837C2
:101CDC00BD4680BD0010024080B584B000AF786076
:101CEC0039607B68002B01D10123D0E06A4B1B6863
:101CFC0003F007033A689A4210D9674B1B6823F02C
:101D0C00070265493B6813430B60634B1B6803F088
:101D1C0007033A689A4201D00123B8E07B681B683C
:101D2C0003F00203002B20D07B681B6803F0040334
:101D3C00002B05D0594B5B68584A43F4E063536061
:101D4C007B681B6803F00803002B05D0534B5B68C2
:101D5C00524A43F460535360504B5B6823F0F002DB
:101D6C007B689B684D4913434B607B681B6803F091
:101D7C000103002B40D07B685B68012B07D1474BDC
:101D8C001B6803F40033002B15D101237FE07B6823
:101D9C005B68022B07D1414B1B6803F00073002BCF
:101DAC0009D1012373E03D4B1B6803F00203002BA8
:101DBC0001D101236BE0394B5B6823F003027B6894
:101DCC005B68364913434B60FFF728FAF8600AE06A
:101DDC00FFF724FA0246FB68D31A41F28832934289
:101DEC0001D9032353E02D4B5B6803F00C027B6895
:101DFC005B689B009A42EBD1274B1B6803F00703EF
:101E0C003A689A4210D2244B1B6823F007022249ED
:101E1C003B6813430B60204B1B6803F007033A68C5
:101E2C009A4201D0012332E07B681B6803F0040363
:101E3C00002B08D0194B5B6823F4E0627B68DB68ED
:101E4C00164913434B607B681B6803F00803002B97
:101E5C0009D0124B5B6823F460527B681B69DB0072
:101E6C000E4913434B6000F021F802460B4B5B68A4
:101E7C001B0903F00F030A49CB5C22FA03F3094A4E
:101E8C001360094B1B681846FFF786F900231846A8
:101E9C001037BD4680BD00BF00200240001002403C
:101EAC00F8270008280000202C00002090B48AB0ED
:101EBC0000AF294B3C1D0FCB84E80F0040F20123EF
:101ECC003B800023FB610023BB6100237B6200236A
:101EDC007B6100233B62214B5B68FB61FB6903F078
:101EEC000C03042B02D0082B03D02BE01C4B3B62C1
:101EFC002BE0FB699B0C03F00F0328333B4413F8D6
:101F0C00243C7B61FB6903F48033002B12D0134B10
:101F1C005B685B0C03F0010328333B4413F8283C4B
:101F2C00BB617B690E4A03FB02F2BB69B2FBF3F3A4
:101F3C007B6204E07B690B4A02FB03F37B627B6AE6
:101F4C003B6202E0064B3B6200BF3B6A18462837F7
:101F5C00BD4690BC704700BFE82700080010024047
:101F6C0000127A0000093D0080B485B000AF7860A3
:101F7C000A4B1B680A4AA2FB03235B0A7A6802FB22
:101F8C0003F3FB6000BFFB685A1EFA60002BF9D10B
:101F9C0000BF00BF1437BD4680BC7047280000202E
:101FAC00D34D621080B582B000AF78607B68002B97
:101FBC0001D1012341E07B6893F83D30DBB2002B6B
:101FCC0006D17B68002283F83C207868FEF7A4FFDA
:101FDC007B68022283F83D207B681A687B68043397
:101FEC001946104600F06AFA7B68012283F84620F5
:101FFC007B68012283F83E207B68012283F83F2016
:10200C007B68012283F840207B68012283F8412001
:10201C007B68012283F842207B68012283F84320ED
:10202C007B68012283F844207B68012283F84520D9
:10203C007B68012283F83D20002318460837BD46F3
:10204C0080BD000080B485B000AF78607B6893F8E9
:10205C003D30DBB2012B01D0012335E07B6802223D
:10206C0083F83D207B681B68DA687B681B6842F04C
:10207C000102DA607B681B68164A934209D07B68C0
:10208C001B68B3F1804F04D07B681B68124A9342E3
:10209C0011D17B681B689B6803F00703FB60FB682E
:1020AC00062B10D07B681B681A687B681B6842F093
:1020BC0001021A6007E07B681B681A687B681B6862
:1020CC0042F001021A60002318461437BD4680BC4A
:1020DC00704700BF002C01400004004080B582B066
:1020EC0000AF78607B681B681B6903F00203022B4E
:1020FC0022D17B681B68DB6803F00203022B1BD127
:10210C007B681B686FF002021A617B6801221A77E8
:10211C007B681B689B6903F00303002B03D0786872
:10212C0000F0B1F905E0786800F0A4F9786800F0E7
:10213C00B3F97B6800221A777B681B681B6903F074
:10214C000403042B22D17B681B68DB6803F00403B7
:10215C00042B1BD17B681B686FF004021A617B682F
:10216C0002221A777B681B689B6903F44073002B6F
:10217C0003D0786800F087F905E0786800F07AF908
:10218C00786800F089F97B6800221A777B681B68F5
:10219C001B6903F00803082B22D17B681B68DB68E2
:1021AC0003F00803082B1BD17B681B686FF0080237
:1021BC001A617B6804221A777B681B68DB6903F061
:1021CC000303002B03D0786800F05DF905E0786814
:1021DC0000F050F9786800F05FF97B6800221A77FC
:1021EC007B681B681B6903F01003102B22D17B68E2
:1021FC001B68DB6803F01003102B1BD17B681B687A
:10220C006FF010021A617B6808221A777B681B68D2
:10221C00DB6903F44073002B03D0786800F033F9CA
:10222C0005E0786800F026F9786800F035F97B68ED
:10223C0000221A777B681B681B6903F00103012BD2
:10224C000ED17B681B68DB6803F00103012B07D1FF
:10225C007B681B686FF001021A617868FEF74EFF0D
:10226C007B681B681B6903F08003802B0ED17B6895
:10227C001B68DB6803F08003802B07D17B681B682D
:10228C006FF080021A61786800F067FA7B681B684F
:10229C001B6903F04003402B0ED17B681B68DB6885
:1022AC0003F04003402B07D17B681B686FF04002A2
:1022BC001A61786800F0F9F87B681B681B6903F0F9
:1022CC002003202B0ED17B681B68DB6803F02003F6
:1022DC00202B07D17B681B686FF020021A6178688D
:1022EC0000F032FA00BF0837BD4680BD80B584B01F
:1022FC0000AF786039607B6893F83C30012B01D1DA
:10230C000223B3E07B68012283F83C207B68022225
:10231C0083F83D207B681B689B68FB60FB6823F09F
:10232C007703FB60FB6823F47F43FB607B681B68CF
:10233C00FA689A603B681B68B3F5005F3ED0B3F552
:10234C00005F00F28780B3F5805F00F08580B3F505
:10235C00805F7FD8702B1AD0702B7BD8602B50D01D
:10236C00602B77D8502B3CD0502B73D8402B58D0A7
:10237C00402B6FD8302B64D0302B6BD8202B60D0F7
:10238C00202B67D8002B5CD0102B5AD062E07B68D6
:10239C0018683B6899683B685A683B68DB6800F0D2
:1023AC005CF97B681B689B68FB60FB6843F07703F8
:1023BC00FB607B681B68FA689A604EE07B68186863
:1023CC003B6899683B685A683B68DB6800F045F9E4
:1023DC007B681B689A687B681B6842F480429A6031
:1023EC003BE07B6818683B6859683B68DB681A46B9
:1023FC0000F0BCF87B681B685021184600F013F9FC
:10240C002BE07B6818683B6859683B68DB681A46A8
:10241C0000F0DAF87B681B686021184600F003F9BD
:10242C001BE07B6818683B6859683B68DB681A4698
:10243C0000F09CF87B681B684021184600F0F3F80C
:10244C000BE07B681A683B681B681946104600F065
:10245C00EAF802E000BF00E000BF7B68012283F8CD
:10246C003D207B68002283F83C200023184610375F
:10247C00BD4680BD80B483B000AF786000BF0C3720
:10248C00BD4680BC704780B483B000AF786000BF9D
:10249C000C37BD4680BC704780B483B000AF786009
:1024AC0000BF0C37BD4680BC704780B483B000AF12
:1024BC00786000BF0C37BD4680BC704780B485B0D7
:1024CC0000AF786039607B681B68FB607B68254ACD
:1024DC00934207D07B68B3F1804F03D07B68224ACC
:1024EC00934208D1FB6823F07003FB603B685B6888
:1024FC00FA681343FB607B681A4A934207D07B68E7
:10250C00B3F1804F03D07B68174A934208D1FB6824
:10251C0023F44073FB603B68DB68FA681343FB6091
:10252C00FB6823F080023B685B691343FB607B68AC
:10253C00FA681A603B689A687B68DA623B681A68CA
:10254C007B689A627B68074A934203D13B681A699D
:10255C007B681A637B6801225A6100BF1437BD4641
:10256C0080BC7047002C01400004004080B487B050
:10257C0000AFF860B9607A60FB681B6A7B61FB682E
:10258C001B6A23F00102FB681A62FB689B693B61C2
:10259C003B6923F0F0033B617B681B013A691343F1
:1025AC003B617B6923F00A037B617A69BB68134347
:1025BC007B61FB683A699A61FB687A691A6200BFB1
:1025CC001C37BD4680BC704780B487B000AFF86044
:1025DC00B9607A60FB681B6A23F01002FB681A6210
:1025EC00FB689B697B61FB681B6A3B617B6923F41D
:1025FC0070437B617B681B037A6913437B613B6986
:10260C0023F0A0033B61BB681B013A6913433B6198
:10261C00FB687A699A61FB683A691A6200BF1C37D9
:10262C00BD4680BC704780B485B000AF786039601F
:10263C007B689B68FB60FB6823F07003FB603A6867
:10264C00FB68134343F00703FB607B68FA689A60EE
:10265C0000BF1437BD4680BC704780B487B000AF54
:10266C00F860B9607A603B60FB689B687B617B6952
:10267C0023F47F437B613B681A027B681A43BB6877
:10268C0013437A6913437B61FB687A699A6000BFD4
:10269C001C37BD4680BC704780B485B000AF7860F5
:1026AC0039607B6893F83C30012B01D1022341E067
:1026BC007B68012283F83C207B68022283F83D2052
:1026CC007B681B685B68FB607B681B689B68BB60F6
:1026DC00FB6823F07003FB603B681B68FA681343CC
:1026EC00FB607B681B68FA685A607B681B68144A3D
:1026FC00934209D07B681B68B3F1804F04D07B6890
:10270C001B68104A93420CD1BB6823F08003BB605A
:10271C003B685B68BA681343BB607B681B68BA682C
:10272C009A607B68012283F83D207B68002283F845
:10273C003C20002318461437BD4680BC704700BFB0
:10274C00002C01400004004080B483B000AF7860DE
:10275C0000BF0C37BD4680BC704780B483B000AF5F
:10276C00786000BF0C37BD4680BC704770B5002642
:10277C000C4D0D4C641BA410A64209D100F022F89C
:10278C0000260A4D0A4C641BA410A64205D170BD4C
:10279C0055F8043B98470136EEE755F8043B98474B
:1027AC000136F2E708280008082800080828000865
:1027BC000C28000803460244934200D1704703F8EA
:1027CC00011BF9E7F8B500BFF8BC08BC9E46704782
:0C27DC00F8B500BFF8BC08BC9E46704772
:1027E80002030405060708090A0B0C0D0E0F10104A
:1027F80000000000000000000102030406070809A9
:042808003101000892
:04280C000D010008B2
:1028100003000000050000000200000003000000AB
:10282000050000000200000001000000040000009C
:1028300001000000000000000024F400100000006F
:042840000100000093
:040000050800112DB1
:00000001FF
